:03000000020B05EB
:0C0B0500787FE4F6D8FD758145020800F9
:100A8D004D6F74696F6E2064657465637465640081
:100A9D004D6F74696F6E204E6F740044657465639D
:040AAD007465640008
:09093500120860D2817F057E00EA
:10093E00E4FDFCC3ED9FEE6480F8EC6480985015E6
:10094E00E4FBFA0BBB00010AEB64644A70F50DBDC3
:05095E0000010C80DE29
:010963002271
:10086000EF30E004D2A08002C2A0EF30E104D2A1B8
:100870008002C2A1EF30E204D2A28002C2A2EF3015
:10088000E304D2A38002C2A3EF30E404D2A4800226
:10089000C2A4EF30E504D2A58002C2A5EF30E60481
:1008A000D2A68002C2A6EF30E703D2A722C2A722B7
:070AF6007E0012093E7F3073
:080AFD00C280120935C28122FA
:050B37007F01020AFD30
:100A3C008F38A905EF3395E0FEEF64014E7005E9A0
:100A4C0024808010AF38EF3395E0FEEF64024E70D7
:090A5C0007E924C0FF120AFD2283
:100A1200E4FF120860C2807FC8120AF67F32120A0F
:100A2200F67F6E120AF67F38120AFD7F0C120AFD5B
:0A0A32007F01120AFD7F06020AFD93
:080B2F00D280120935C28122B7
:060991008B388A39893A17
:10099700E4F53BF53CAB38AA39A93A853C82853B5F
:1009A70083120964FF600D120B2F053CE53C70E5CF
:0409B700053B80E19B
:0109BB002219
:050B3C007F1C020AFD10
:050B41007F18020AFD0F
:100A6500EF30E004D2A48002C2A4EF30E104D2A5A5
:100A75008002C2A5EF30E204D2A68002C2A6EF3002
:080A8500E303D2A722C2A7225D
:070AE4007E0012093E7F03B2
:0B0AEB00C280120A65120938C2812285
:0A0B1100E4FF120AEB7F01020AEB79
:0408B0008F42A905C5
:1008B400EF3395E0FEEF64014E7012E92480FFF5FA
:1008C400437804A2E713D8FBF544EF801EAF42EF50
:1008D4003395E0FEEF64024E701FE92480F54378FF
:1008E40004A2E713D8FBF544E924C0540FF545AF3F
:0908F40044120AEBAF45120AEBB5
:0108FD0022D8
:1008FE00E4FF120A657FC8120AE47F32120AE47F0F
:10090E006E120AE47F02120AEB7F02120AEB7F08D4
:10091E00120AEBE4FF120AEB7F0C120AEBE4FF1251
:07092E000AEB7F06020AEB51
:0209BC00AE0784
:1009BE00EE540FF9EE54F0FFD2807804A2E713D86C
:1009CE00FBFF120A65120938C281AF01120A65D205
:0809DE00817F0512093EC28170
:0109E60022EE
:0609E7008B3D8A3E893FB2
:1009ED00E4F540F541AB3DAA3EA93F8541828540E6
:1009FD0083120964FF600D1209BC0541E54170E5E4
:040A0D00054080E13F
:010A110022C2
:0A0B1B007F01120AEB7F0C020AEBC7
:0A0B25007F01120AEB7F08020AEBC1
:100ACC00758901758CFC758A67758810E58830E529
:080ADC00FB5388EF5388DF2271
:100AB100E4FDFCC3ED9FEE6480F8EC648098500A7D
:0A0AC100120ACC0DBD00010C80E903
:010ACB002208
:10080000750A00750B50750FCD750ECC750DE4751E
:100810000C41120A12120B373090197D017F011220
:100820000A3C7BFF7A0A798D1209917F887E131228
:100830000AB180E12090DE7D017F01120A3C7BFF3E
:100840007A0A799D1209917D017F02120A3C7BFF91
:100850007A0A79A81209917F887E13120AB180B5AD
:10096400BB010CE58229F582E5833AF583E0225048
:1009740006E92582F8E622BBFE06E92582F8E22292
:0D098400E58229F582E5833AF583E49322AC
:00000001FF
